:020000040000FA
:100000000C9462000C948A000C948A000C948A0070
:100010000C948A000C948A000C948A000C948A0038
:100020000C948A000C948A000C948A000C944E055F
:100030000C948A000C948A000C948A000C948A0018
:100040000C9404050C948A000C948A000C948A0089
:100050000C948A000C948A000C948A000C948A00F8
:100060000C940A060C948A0000000000240027006B
:100070002A0000000000250028002B0000000000DE
:1000800023002600290004040404040404040202DA
:100090000202020203030303030301020408102007
:1000A0004080010204081020010204081020000012
:1000B0000008000201000003040700000000000027
:1000C0000000290711241FBECFEFD8E0DEBFCDBF4F
:1000D00011E0A0E0B1E0ECEAF3E102C005900D927E
:1000E000AA37B107D9F722E0AAE7B1E001C01D9213
:1000F000A238B207E1F710E0C2E6D0E004C02197D1
:10010000FE010E94CE09C136D107C9F70E946E07D1
:100110000C94D4090C9400008F929F92AF92BF92DE
:10012000FF920F931F93CF93DF93F09073022BE016
:100130002F1508F44CC02091750208E512E0021B4F
:10014000110927FD1395000F111F000F111F20919A
:100150007402C8E8D0E0C21BD10927FDD395CC0FAB
:10016000DD1FCC0FDD1F4E010D2E000CAA08BB08B1
:100170009801012E000C440B550B281939094A0926
:100180005B09DC010E94890924EB30E040E050E08B
:100190000E945F09820E931EA41EB51E8C169D063A
:1001A0002CF0E801801691060CF4E4012297CC0FA4
:1001B000DD1F2FB7F8948F2D90E0FC01EE0FFF1F8D
:1001C000E80FF91FE25BFD4FD283C1832FBFDF91A0
:1001D000CF911F910F91FF90BF90AF909F908F9004
:1001E000089508950895AF92BF92CF92DF92EF9253
:1001F000FF920F931F93CF93DF936C017B018B01D1
:10020000040F151FEB015E01AE18BF08C017D10720
:1002100059F06991D601ED91FC910190F081E02DAA
:10022000C6010995892B79F7C501DF91CF911F91FF
:100230000F91FF90EF90DF90CF90BF90AF90089517
:10024000833081F028F4813099F08230A9F008954C
:100250008730A9F08830C9F08430B1F480918000F3
:100260008F7D03C0809180008F77809380000895F8
:1002700084B58F7784BD089584B58F7DFBCF809141
:10028000B0008F778093B00008958091B0008F7D8B
:10029000F9CFCF93DF93282F30E0F901E255FF4FDC
:1002A0008491F901E656FF4FD491F901EA57FF4FC7
:1002B000C491CC23A1F081110E942001EC2FF0E029
:1002C000EE0FFF1FE458FF4FA591B491EC91ED2381
:1002D00081E090E009F480E0DF91CF91089580E023
:1002E00090E0FACF1F93CF93DF93282F30E0F901EE
:1002F000E255FF4F8491F901E656FF4FD491F90181
:10030000EA57FF4FC491CC23A9F0162F81110E9408
:100310002001EC2FF0E0EE0FFF1FEE58FF4FA591EC
:10032000B4918FB7F894EC91111108C0D095DE23E9
:10033000DC938FBFDF91CF911F910895DE2BF8CF13
:10034000CF93DF9390E0FC01E656FF4F24918A574C
:100350009F4FFC0184918823D1F090E0880F991F72
:10036000FC01E859FF4FA591B491FC01EE58FF4FF5
:10037000C591D49161110EC09FB7F8948C91E22F72
:10038000E0958E238C932881E223E8839FBFDF9141
:10039000CF9108958FB7F894EC91E22BEC938FBF37
:1003A000F6CF3FB7F8948091320290913302A0913A
:1003B0003402B091350226B5A89B05C02F3F19F035
:1003C0000196A11DB11D3FBFBA2FA92F982F8827D5
:1003D000BC01CD01620F711D811D911D42E0660FB0
:1003E000771F881F991F4A95D1F708958F929F9282
:1003F000AF92BF92CF92DF92EF92FF924B015C01DE
:100400000E94D1016B017C010E94D1016C197D0910
:100410008E099F09683E734081059105A8F321E08C
:10042000821A9108A108B10888EEC80E83E0D81E90
:10043000E11CF11C81149104A104B10429F7FF907F
:10044000EF90DF90CF90BF90AF909F908F900895E6
:1004500008952091BB01260F3327331F2132310528
:10046000ECF420910402FC0190E080E0243069F07B
:1004700082E00895A091BB012191AC0145565E4FE9
:10048000A40FB52FB11D2C930196861798F3809178
:10049000BB01680F6093BB0180E0089581E008957F
:1004A0001092040281E0809303021092DE0161E069
:1004B00082E10E94720161E083E10E947201E9EB36
:1004C000F0E080818E7F808380818D7F808388E4CF
:1004D0008093B80085E48093BC000895CF93DF93A8
:1004E00091E090939A018823B9F0C091B800D0911F
:1004F000BA008091BC008A7B8093BC0060E082E1FE
:100500000E94720160E083E10E9472010E94500229
:10051000D093BA00C093B800DF91CF9108950895A9
:10052000E0913D0280913C02E81730F4F0E0E6589B
:10053000FE4F808190E008958FEF9FEF0895909196
:100540003D0280913C022FEF3FEF981748F4E92FCE
:10055000F0E0E658FE4F208130E09F5F90933D022F
:10056000C901089580913C0290913D02891B990B2D
:100570000895CF92DF92EF92FF920F931F93CF9344
:10058000DF937C01CB018A0120910A02222389F0AA
:10059000EB016B01C40ED51ECC15DD0569F0699128
:1005A000D701ED91FC910190F081E02DC7010995F3
:1005B000F3CF642F0E942902C801DF91CF911F91D0
:1005C0000F91FF90EF90DF90CF900895CF93DF933E
:1005D0001F92CDB7DEB7698320910A022223F9F07A
:1005E00020913A02203258F021E030E0FC013383C0
:1005F000228390E080E00F90DF91CF910895809169
:100600003B02E82FF0E0E55FFD4F998190838F5F1B
:1006100080933B0280933A0281E090E0ECCF61E06E
:10062000CE0101960E942902F7CFCF92DF92EF927E
:10063000FF920F931F93CF93DF93FC01C48121E0BE
:1006400020930A02C0932B0210923B0210923A02AE
:100650008385682B82E492E00E94E602D0913A0200
:10066000D13208F092C00E94D1016B017C018091CF
:100670000402811165C082E08093040281E08093CE
:1006800003028FEF8093020210920102D0930002C6
:10069000ABE0B2E0E0EEF1E080E0D81385C010926C
:1006A000DF018091DF01CC0FC82BC093DF01809167
:1006B000DE01813009F07CC01092DE010E94D10180
:1006C0006B017C018091DF018093BB008091060269
:1006D00090910702A0910802B0910902892B8A2B00
:1006E0008B2B99F00E94D101009106021091070214
:1006F00020910802309109026C197D098E099F0929
:100700000617170728073907E0F18091BC0083FD21
:10071000D9CF85EC8093BC000E94D1016B017C0194
:1007200080910402823009F445C0809102028F3F1B
:1007300061F180910202803241F18091020225C074
:100740008091060290910702A0910802B0910902DF
:10075000892B8A2B8B2B09F48ACF0E94D10100911F
:1007600006021091070220910802309109026C19CB
:100770007D098E099F09061717072807390708F012
:1007800076CF809105020E946E0210923B02109279
:100790003A0210920A02DF91CF911F910F91FF90C0
:1007A000EF90DF90CF9008959D9191938F5F75CFDB
:1007B00085EEB0CF8091060290910702A0910802C9
:1007C000B0910902892B8A2B8B2B09F4A9CF0E94A7
:1007D000D101009106021091070220910802309188
:1007E00009026C197D098E099F090617170728074A
:1007F000390708F095CFC5CF90E080E008958F923B
:100800009F92AF92BF920F931F93CF93DF93CDB779
:10081000DEB7A1970FB6F894DEBF0FBECDBF19A209
:10082000423008F44AE08E010F5D1F4F842E912C58
:10083000B12CA12CA50194010E949109E62FB901C8
:10084000CA01EA3044F5E05DD801EE938D01232B17
:10085000242B252B79F790E080E0109769F0FD01BB
:1008600001900020E9F73197AF014A1B5B0BBD01F6
:1008700086E792E00E94F300A1960FB6F894DEBFDF
:100880000FBECDBFDF91CF911F910F91BF90AF9061
:100890009F908F900895E95CD7CFFC0101900020D4
:1008A000E9F73197AF01481B590BBC0186E792E08D
:1008B0000C94F3000F931F93CF938C01C62F0E94CB
:1008C00015036C2F6460C8010E9415036C2F6B7FA9
:1008D000C8010E94150383EC90E00197F1F7CF91D6
:1008E0001F910F9108950F931F93CF93DF938C0166
:1008F000D62FC42F607F642B0E945A0480E1D89FBA
:10090000B00111246C2BC801DF91CF911F910F9181
:100910000C945A0440E061E086E792E00E94730480
:100920008BE39FE10197F1F70895CF93DF93CDB764
:10093000DEB728970FB6F894DEBF0FBECDBF98E0A4
:10094000E2E0F1E0DE01119601900D929A95E1F757
:1009500090917E02981708F48FEF90E0880F991F0E
:1009600021E030E02C0F3D1F820F931FFC016081BE
:10097000606840E086E792E028960FB6F894DEBF04
:100980000FBECDBFDF91CF910C94730441E00E9464
:10099000730481E090E0089585ED8093BC00809120
:1009A000060290910702A0910802B09109020796F1
:1009B000A11DB11D23E0B695A795979587952A951A
:1009C000D1F72091BC0024FD03C0109204020895C9
:1009D000409106025091070260910802709109024D
:1009E000452B462B472B69F30097A105B10541F034
:1009F00025E32A95F1F700000197A109B109E1CF9C
:100A0000809105020C946E021F920F920FB60F9206
:100A100011242F933F938F939F93AF93BF93809114
:100A20002E0290912F02A0913002B09131023091AC
:100A30002D0223E0230F2D3758F50196A11DB11D7E
:100A400020932D0280932E0290932F02A0933002C8
:100A5000B09331028091320290913302A09134021E
:100A6000B09135020196A11DB11D80933202909381
:100A70003302A0933402B0933502BF91AF919F919E
:100A80008F913F912F910F900FBE0F901F9018954F
:100A900026E8230F0296A11DB11DD2CF1F920F92FF
:100AA0000FB60F9211242F933F934F935F936F9341
:100AB0007F938F939F93AF93BF93CF93DF93EF93E6
:100AC000FF9380912C02C0917202D0E087FF24C076
:100AD000109285001092840080912C028F5F809389
:100AE0002C0280912C02082E000C990B8C179D076C
:100AF00024F480912C028C30C4F180918400909178
:100B00008500049680349C4908F47AC08091840062
:100B100090918500049676C080912C02082E000CDE
:100B2000990B8C179D07C4F6E0912C028E2FEE0FC7
:100B3000990BFC01EE0FFF1FE80FF91FE25BFD4F61
:100B4000808186FFC9CFE0912C028E2FEE0F990B8A
:100B5000FC01EE0FFF1FE80FF91FE25BFD4F8081E4
:100B600060E08F730E947201B7CF209184003091B2
:100B70008500E0912C028E2FEE0F990BFC01EE0FF9
:100B8000FF1FE80FF91FE25BFD4F81819281820F09
:100B9000931F9093890080938800E0912C028E2F00
:100BA000EE0F990BFC01EE0FFF1FE80FF91FE25B40
:100BB000FD4F808186FF11C0E0912C028E2FEE0F39
:100BC000990BFC01EE0FFF1FE80FF91FE25BFD4FD1
:100BD000808161E08F730E947201FF91EF91DF913C
:100BE000CF91BF91AF919F918F917F916F915F91C5
:100BF0004F913F912F910F900FBE0F901F9018951E
:100C000080E49CE990938900809388008FEF809323
:100C10002C02E3CF1F920F920FB60F9211242F9345
:100C20003F934F935F936F937F938F939F93AF9374
:100C3000BF93EF93FF938091B900887F803609F4CA
:100C40004AC0F0F5883209F4A7C018F5803109F4DC
:100C50009BC0B8F4882309F4F9C0883009F494C023
:100C6000FF91EF91BF91AF919F918F917F916F9184
:100C70005F914F913F912F910F900FBE0F901F905A
:100C80001895883109F488C0803251F780930202A8
:100C900014C0803409F49DC040F48033B9F3883324
:100CA000F9F68093020285ECB0C0803509F485C066
:100CB000883509F496C0883499F60E94CC04D0CFC8
:100CC000883909F48CC038F5883729F050F4883613
:100CD00011F0803729F683E0809304021092DD0141
:100CE00057C0883809F47BC0803919F0803809F082
:100CF000B7CF8091DD01803208F071C0E091DD0155
:100D000081E08E0F8093DD018091BB00F0E0E35421
:100D1000FE4F80833DC0803B39F0E0F4803A09F417
:100D200079C0883A09F09CCF84E080930402109245
:100D3000BC011092BB01E0913802F0913902099593
:100D40008091BB0181110FC081E08093BB011092A3
:100D50009B0109C0803C09F4A6CF883C09F4A3CFCD
:100D6000883B09F07DCFE091BC0181E08E0F80933C
:100D7000BC01F0E0E556FE4F80818093BB0090916E
:100D8000BC018091BB0129C08091DF018093BB0031
:100D900085EC8093BC0064CF9091010280910002A9
:100DA000981758F5E091010281E08E0F80930102BF
:100DB000F0E0E052FE4F8081E9CFE091010281E056
:100DC0008E0F809301028091BB00F0E0E052FE4F55
:100DD000808390910102809100029817C8F285E803
:100DE000D8CFE091010281E08E0F809301028091C3
:100DF000BB00F0E0E052FE4F80838091030281113E
:100E00005CCF81E08093DE0184EA8093BC00109285
:100E1000040226CF85EC8093BC00109204028091DE
:100E2000DD01803230F4E091DD01F0E0E354FE4F6B
:100E300010826091DD0170E0E0913602F09137029E
:100E40008DEB91E009951092DD010ACF109202021C
:100E500034CF109245021092440288EE93E0A0E055
:100E6000B0E08093460290934702A0934802B0936B
:100E700049028EE091E090934302809342021092E7
:100E800079021092780280E291E090937702809349
:100E9000760210927A0280E180937F0282E0809352
:100EA000800210928102809172028C3098F491E05D
:100EB000980F909372028093730290E0FC01EE0F02
:100EC000FF1FE80FF91FE25BFD4F88EB9BE0928369
:100ED000818308958FEF809373020895789484B589
:100EE000826084BD84B5816084BD85B5826085BD26
:100EF00085B5816085BD80916E00816080936E00B4
:100F000010928100809181008260809381008091A5
:100F10008100816080938100809180008160809356
:100F200080008091B10084608093B1008091B00016
:100F300081608093B00080917A00846080937A0011
:100F400080917A00826080937A0080917A0081603B
:100F500080937A0080917A00806880937A00109262
:100F6000C10010923D0210923C0210923B0210927E
:100F70003A020E94500281EF90E0909339028093F0
:100F8000380282EF90E090933702809336021092FD
:100F90007B0280918002823018F098E090937B026F
:100FA00080937E0262E370E080E090E00E94F601B0
:100FB0006091810286E792E00E94150368EE73E07B
:100FC00080E090E00E94F60160E386E792E00E94F4
:100FD0005A04CBE4D6E4CE010197F1F760E386E74B
:100FE00092E00E945A042197F1F760E386E792E0CD
:100FF0000E945A0483E592E00197F1F760E286E7E8
:1010000092E00E945A0460917B02606240E086E7B1
:1010100092E00E94730484E080937C0240E06CE0E4
:1010200086E792E00E9473040E948A0482E0809323
:101030007D0240E066E086E792E00E94730440E0B3
:1010400062E086E792E00E9473048BE39FE10197E0
:10105000F1F788E08093810260E086E792E00E94E9
:10106000150360E082E00E94A00160E084E00E943D
:10107000A001809173028C3008F051C061E083E0E0
:101080000E94A00180917302282F30E0F901EE0F39
:10109000FF1FE20FF31FE25BFD4F9081907C936096
:1010A000908310927402109275022CE0622F0E94BD
:1010B000C209829FB001112430E020E0AB01420F51
:1010C000531FFA01EE0FFF1FE40FF51FE25BFD4F08
:1010D000908196FD16C02F5F3F4F2C30310571F780
:1010E00081110FC01092800082E0809381001092E5
:1010F000850010928400B19A80916F008260809385
:101100006F00E09173028E2F90E0FC01EE0FFF1F45
:10111000E80FF91FE25BFD4F80818064808384E6E5
:1011200090E00E948C0080E00E94950488E291E0AB
:101130000E944D0481E00E94950484E391E00E94A6
:101140004D0468EE73E080E090E00E94F6010E949A
:101150008A0400E010E0C1E0D0E082E00E94490192
:10116000892B11F58091400290914102892BE1F485
:10117000E0900001F09001011E141F04E4F5D093EB
:101180004102C093400280913E0290913F02892B20
:1011900059F490E080E00E948C0081E0E81AF108A8
:1011A000F0920101E092000184E00E944901209147
:1011B000400230914102892BA9F12130310509F01B
:1011C0004CC080913E0290913F02019709F045C0CA
:1011D00068EE73E080E090E00E94F60184E690E023
:1011E0000E948C00109241021092400210923F0225
:1011F00010923E0232C080E00E94950487E491E0A4
:101200000E944D0481E00E94950484E591E00E94D3
:101210004D0468EB7BE080E090E00E94F6010E94C4
:101220008A04C2CF80913E0290913F02892B29F619
:10123000D0933F02C0933E022115310509F0BDCF86
:1012400090E080E00E948C0080910001909101016B
:101250000196909301018093000180E00E94950423
:1012600083E691E00E944D0481E00E9495048EE6A1
:1012700091E00E944D04C0900001D09001010D2C1E
:10128000000CEE08FF084AE0C701B601F7FE0EC0E9
:1012900041E06DE286E792E00E94730466277727BB
:1012A000CB016C197D098E099F094AE00E94FF035A
:1012B0000115110509F451CF0E9400004ECF052EF3
:1012C00097FB1EF400940E94760957FD07D00E94F8
:1012D000910907FC03D04EF40C9476095095409583
:1012E000309521953F4F4F4F5F4F089590958095D2
:1012F000709561957F4F8F4F9F4F08950E94B3095E
:10130000A59F900DB49F900DA49F800D911D112459
:101310000895B7FF0C947E090E947E09821B930BEF
:101320000895A1E21A2EAA1BBB1BFD010DC0AA1F26
:10133000BB1FEE1FFF1FA217B307E407F50720F03E
:10134000A21BB30BE40BF50B661F771F881F991FB9
:101350001A9469F760957095809590959B01AC0102
:10136000BD01CF010895A29FB001B39FC001A39F0B
:10137000700D811D1124911DB29F700D811D1124CE
:10138000911D0895991B79E004C0991F961708F0E4
:10139000961B881F7A95C9F780950895EE0FFF1F59
:1013A0000590F491E02D0994F894FFCF040000001B
:1013B00040001400540000000000E602B902FC03E3
:1013C0008F02B2029F02900200000000C604F300E8
:1013D000FC032802202041524455494E4F20200052
:1013E00020205041524B494E472053595354454DAC
:1013F0002020002020534F5252593A28202020000C
:10140000205061726B696E672046756C6C200020FD
:1014100057454C434F4D45212000736C6F74204C51
:061420006566743A20002D
:107E0000112484B714BE81FFF0D085E080938100F7
:107E100082E08093C00088E18093C10086E0809377
:107E2000C20080E18093C4008EE0C9D0259A86E02C
:107E300020E33CEF91E0309385002093840096BBD3
:107E4000B09BFECF1D9AA8958150A9F7CC24DD24C4
:107E500088248394B5E0AB2EA1E19A2EF3E0BF2EE7
:107E6000A2D0813461F49FD0082FAFD0023811F036
:107E7000013811F484E001C083E08DD089C08234E0
:107E800011F484E103C0853419F485E0A6D080C0E4
:107E9000853579F488D0E82EFF2485D0082F10E0AE
:107EA000102F00270E291F29000F111F8ED06801E7
:107EB0006FC0863521F484E090D080E0DECF843638
:107EC00009F040C070D06FD0082F6DD080E0C81688
:107ED00080E7D80618F4F601B7BEE895C0E0D1E017
:107EE00062D089930C17E1F7F0E0CF16F0E7DF06D8
:107EF00018F0F601B7BEE89568D007B600FCFDCFD4
:107F0000A601A0E0B1E02C9130E011968C91119780
:107F100090E0982F8827822B932B1296FA010C0160
:107F200087BEE89511244E5F5F4FF1E0A038BF0790
:107F300051F7F601A7BEE89507B600FCFDCF97BE46
:107F4000E89526C08437B1F42ED02DD0F82E2BD052
:107F50003CD0F601EF2C8F010F5F1F4F84911BD097
:107F6000EA94F801C1F70894C11CD11CFA94CF0C13
:107F7000D11C0EC0853739F428D08EE10CD085E9AC
:107F80000AD08FE07ACF813511F488E018D01DD067
:107F900080E101D065CF982F8091C00085FFFCCF94
:107FA0009093C60008958091C00087FFFCCF809118
:107FB000C00084FD01C0A8958091C6000895E0E648
:107FC000F0E098E1908380830895EDDF803219F02E
:107FD00088E0F5DFFFCF84E1DECF1F93182FE3DFCA
:107FE0001150E9F7F2DF1F91089580E0E8DFEE27F6
:047FF000FF270994CA
:027FFE00040479
:00000001FF
